:100000000C94B4050C94EB050C94EB050C94EB05E7
:100010000C9492130C94EB050C94EB050C94EB05EB
:100020000C94EB050C94EB050C94EB050C94EB0590
:100030000C94EB050C9432150C94EB050C94EB0529
:100040000C94EB050C94EB050C947A1C0C94A51CF9
:100050000C94EB050C94EB050C94EB050C94EB0560
:100060000C943B080C94EB0505A84CCDB2D44EB9CA
:100070003836A9020C50B9918688083CA6AAAA2A4B
:10008000BE000000803F7665727300000000000033
:100090000000000000000004720100007069746339
:1000A000684B7000000000000000000000027901B1
:1000B000ED0570697463684B690000000000000082
:1000C000000000027B01ED0570697463684B6400F9
:1000D000000000000000000000027D01ED05726FCD
:1000E0006C6C4B700000000000000000000000027B
:1000F0007F01ED05726F6C6C4B6900000000000021
:100100000000000000028101ED05726F6C6C4B6411
:100110000000000000000000000000028301ED0567
:10012000494C696D69740000000000000000000087
:1001300000038501ED0561636354696D650000008E
:10014000000000000000000474016106706974631F
:1001500068506F77657200000000000000048A019B
:10016000B90F726F6C6C506F776572000000000001
:10017000000000048901B90F7069746368526174EA
:10018000654C696D6974000000049A010000726F8B
:100190006C6C526174654C696D69740000000004F8
:1001A0009B010000726F6C6C4D696E0000000000D6
:1001B00000000000000292010000726F6C6C4D6143
:1001C0007800000000000000000000029401000020
:1001D000726F6C6C53706565640000000000000075
:1001E000000498010000726F6C6C44656661756C68
:1001F0007400000000000002960100007069746342
:10020000684D696E000000000000000000028B01D4
:10021000000070697463684D6178000000000000A0
:10022000000000028D0100007069746368537065FE
:100230006564000000000000000491010000706986
:1002400074636844656661756C74000000000002A8
:100250008F01000072634162736F6C7574650000FA
:10026000000000000000990100006D616A6F72419A
:100270007869730000000000000000047601570652
:10028000726576657273655A000000000000000018
:10029000000077015706737761705859000000001D
:1002A0000000000000000000780157064C45444D56
:1002B00061736B00000000000000000000049D015D
:1002C000000000000000000000000000000000002E
:1002D0000000000000000000454550524F4D2076C0
:1002E000657273696F6E206D69736D617463682CDC
:1002F00020696E697469616C697A65204545505260
:100300004F4D00454550524F4D20435243206661AA
:10031000696C65642C20696E697469616C697A65C1
:1003200020454550524F4D0D0A0056657269666969
:10033000636174696F6E206D69736D617463683A8F
:100340002049324320646576696365202578206101
:100350007420616464726573732025782028777235
:100360006F74652025782C207265616420257829BA
:100370000D0A00474F212054797065202268656C72
:10038000702220666F722068656C702E0D0A00471F
:100390006F210D0A004D6F74696F6E20646574657E
:1003A0006374656420647572696E672063616C694B
:1003B00062726174696F6E2E205374617274696E1B
:1003C00067206F766572210D0A0053656E736F7238
:1003D0002063616C6962726174696F6E3A20646F48
:1003E000206E6F74206D6F76650D0A0053656E7315
:1003F0006F722063616C6962726174696F6E3A201A
:10040000646F6E650D0A0070617220257300200014
:10041000747275650066616C7365002575002575DD
:1004200000256C7500256400256400256C64000DB2
:100430000A004552524F523A20696C6C6567616CF4
:1004400020706172616D657465720D0A00646F6E73
:10045000652E0D0A004552524F523A20696C6C6568
:1004600067616C20706172616D657465720D0A0060
:1004700074727565004552524F523A20696C6C6532
:1004800067616C20706172616D657465720D0A0040
:10049000726F6C6C00706974636800626F746800DE
:1004A000526576657274656420746F206465666158
:1004B000756C74732E0D0A00546869732067697631
:1004C000657320796F752061206C697374206F6685
:1004D00020616C6C20636F6D6D616E647320776951
:1004E00074682075736167652E0D0A004578706C1D
:1004F000616E6174696F6E732061726520696E2030
:10050000627261636B65747328292C207573652092
:10051000696E74656765722076616C756573206FAE
:100520006E6C7920210D0A000D0A00546865736510
:1005300020617265207468652070726566657272EC
:10054000656420636F6D6D616E64732C20757365D7
:10055000207468656D20666F72206E657720475540
:1005600049732E0D0A000D0A0073642020202053C9
:1005700065742044656661756C74730D0A00776557
:100580002020202057726974657320616374697636
:100590006520636F6E66696720746F206565707291
:1005A0006F6D0D0A00726520202020526573746FF4
:1005B0007265732076616C7565732066726F6D204D
:1005C000656570726F6D20746F2061637469766504
:1005D00020636F6E6669670D0A0063616C202020DE
:1005E000526563616C6962726174657320746865D9
:1005F000206779726F0D0A006C6576656C20536513
:100600007473206C6576656C2028706C616365205E
:1006100067696D62616C206669726D6C79206C65CA
:1006200076656C20616E642072756E290D0A006417
:1006300065627567203C63617465676F72793E20FF
:100640005072696E74732074726F75626C65736832
:100650006F6F74696E6720696E666F0D0A002020E7
:1006600020202020202064656275672075736167F3
:10067000653A0D0A00202020202020202064656299
:100680007567206F666620202020202020202020F3
:1006900020202020202E2E2E207475726E73206F45
:1006A00066662064656275670D0A002020202020A0
:1006B000202020646562756720616363202020200C
:1006C00020202020202020202020202E2E2E2070B0
:1006D00072696E747320616363656C65726F6D65BA
:1006E0007465722076616C7565730D0A0020202098
:1006F00020202020206465627567206779726F2052
:10070000202020202020202020202020202E2E2EBF
:10071000207072696E7473206779726F2076616CD5
:100720007565730D0A00202020202020202064659C
:1007300062756720617474202020202020202020F2
:100740002020202020202E2E2E207072696E74739F
:100750002061747469747564650D0A00202020207E
:100760002020202064656275672070696420202045
:100770002020202020202020202020202E2E2E204F
:100780007072696E747320504944206F757470756F
:1007900074730D0A007061722020203C7061724EEB
:1007A000616D653E203C70617256616C75653E20DE
:1007B000202047656E6572616C20706172616D65A5
:1007C00074657220726561642F73657420636F6D48
:1007D0006D616E640D0A00202020202020202065FD
:1007E00078616D706C652075736167653A0D0A00FC
:1007F0002020202020202020706172202020202016
:1008000020202020202020202020202020202020E8
:100810002E2E2E206C69737420616C6C20636F6EB9
:1008200066696720706172616D65746572730D0A27
:100830000020202020202020207061722070697408
:1008400063684B69202020202020202020202020A9
:10085000202E2E2E206C6973742070697463684B8F
:10086000690D0A00202020202020202070617220A5
:1008700070697463684B6920313230303020202039
:10088000202020202E2E2E20736574207069746322
:10089000684B6920746F2031323030300D0A000D02
:1008A0000A006F7363203C6E3E2053746172747350
:1008B000206F7363696C6C6174696F6E2077697403
:1008C00068207370656564206E20283020746F2066
:1008D00073746F70290D0A007472616E73203C721C
:1008E0006F6C7C70697463687C626F74687C6F661F
:1008F000663E206E20537461727473207472616E50
:100900007369656E7473207769746820616D706CAB
:100910006974756465206E746573740D0A000D0A40
:1009200000726573657420205265626F6F74207366
:10093000797374656D0D0A0068656C7020202070F5
:1009400072696E742074686973206F757470757441
:100950000D0A000D0A00436F6D6D616E64732061B6
:100960006E6420706172616D65746572206E616D78
:1009700065732061726520636173652D696E7365AF
:100980006E7369746976652E0D0A004875683F209C
:1009900074797065202268656C702220666F722001
:1009A00068656C70202E2E2E0D0A004465627567F6
:1009B000206F66662E0D0A003C0B400B440B490B62
:1009C0004E0B520B560B5C0B600B4875683F205565
:1009D0007365200022255322002C2000206F7220F6
:1009E000000D0A002564006174743A20726F6C6C0B
:1009F00020257300256400097069746368202573DD
:100A00000D0A006163633A2078202564092079206B
:100A1000256409207A2025640D0A006779726F3AEF
:100A200020787420256409207920256409207A2003
:100A300025640D0A00657374673A207820256409DF
:100A40002079202564092C207A202564090D0A00CC
:100A50007069643A20726F6C6C202564092C2072D6
:100A60006F6C6C64656C7461202564092070697416
:100A7000636820256409706974636864656C7461D7
:100A80003A25640D0A00646779726F3A20636F73C8
:100A900070202564092073696E7020256409207216
:100AA0006F6C6C2025640920706974636825640D7F
:100AB0000A006572726F72732025750D0A007263E9
:100AC0003A2073776974636820256409726F6C6CCF
:100AD000202564097369676E616C2025640970695B
:100AE000746368202564097369676E616C202564EE
:100AF0000D0A004779726F20726F6C6C0925642CA7
:100B00002070697463680925642C20796177092550
:100B1000640D0A0041636320580925642C2059099B
:100B200025642C205A0925640D0A00526561642E43
:100B30000D0A0057726F74652E0D0A006F6666000D
:100B4000616363006779726F006573746700617435
:100B5000740070696400646779726F0069326300C1
:100B600072630000921E271F11241FBECFEFD8E032
:100B7000DEBFCDBF84B78093C60414BE2EE088E1EB
:100B800090E00FB6F894A895809360000FBE209374
:100B9000600011E0A0E0B1E0E0E7F2E502C00590FE
:100BA0000D92A634B107D9F714E0A6E4B1E001C074
:100BB0001D92A43CB107E1F71BE0C8E6DBE004C0EE
:100BC0002297FE010E94C522C436D107C9F70E94B0
:100BD000631E0C9436290C9400000F931F93CF933F
:100BE000DF9300918501109186012091870130915A
:100BF0008801C0918301D0918401809181019091FD
:100C00008201EAE0F0E0BF010E945D2280917F0155
:100C1000909180019093D3038093D203A4EDB3E02D
:100C20006C9311967C93D093D703C093D603009313
:100C3000DC031093DD032093DE033093DF03109277
:100C4000D8031092D9031092DA031092DB03C091FB
:100C50007D01D0917E0180917B0190917C01BF014B
:100C60000E945D228091790190917A019093E10335
:100C70008093E003E2EEF3E060837183D093E503B9
:100C8000C093E4030093EA031093EB032093EC0377
:100C90003093ED031092E6031092E7031092E803FD
:100CA0001092E903DF91CF911F910F910895209148
:100CB000780140917701609176018AE494E00C9488
:100CC000AB0C8AE194E00C94CC08FC0184E68083B0
:100CD000118244EF51E05087478320E233E03287AE
:100CE00021878CE291E09487838756874587308BF4
:100CF0002787928B818B40E25EE460E070E0438B5B
:100D0000548B658B768B84E08283178A108E15A2B4
:100D100014A288EC91EF91A380A388E39EE093A3B3
:100D200082A32AE026A3168E158E80E090EC928F87
:100D3000818F148E138E278F84E181A780A781E095
:100D400087A385831682148222A780E883A708954B
:100D50006CE270E00C94DF1CCF93DF93EC010E94F7
:100D6000A8069DA78CA74EE250E060E070E0CE019F
:100D7000DF91CF910C9422280F931F93CF93DF9391
:100D8000EC01A8954EE250E060E070E00E9412286D
:100D90000CA51DA5CE010E94A8060817190749F445
:100DA0008881843619F489818823B1F088ED92E036
:100DB00003C0A89583E093E09F938F930E94EC2556
:100DC000CE010E9465060F900F90CE01DF91CF916A
:100DD0001F910F910C94AC06DF91CF911F910F9151
:100DE000089526E830E01FC044914D93319641E0CC
:100DF000AC35B407C9F74091580150915901452BC2
:100E0000E1F415C0652F61546A3108F4505E642F17
:100E100061546A3108F4405E5417C1F040E02A5E24
:100E20003F4F411107C0F901A6E4B1E0DDCF20E05A
:100E300030E011C026E431E00EC0A6E4B1E0FC01D0
:100E40005D9141914111DECF41E0E9CF41E0A7350D
:100E5000B407B1F7E3CFC9010895FC01818983305C
:100E600001F130F4A289B3898130B1F0B8F406C041
:100E7000853079F058F08630D9F413C081E0452BE5
:100E8000462B472B09F480E08C9312C0A289B389CA
:100E900003C0A289B38902C04C930AC04D935C93EE
:100EA00007C0A289B3894D935D936D937C9313978B
:100EB0000488F589E02D309709F0099408950E947F
:100EC000B90F0E94ED052091780140917701609162
:100ED00076018AE494E00C94AB0C44984598109207
:100EE000B90085E08093B80084E08093BC008FEF68
:100EF0008093A0010895ECEBF0E080818B7F8083EC
:100F000008958FEF90E00AC0019741F41092BC0061
:100F10008091AF018F5F8093AF0108952091BC0055
:100F200027FFF2CF08950F931F93CF93DF931F9264
:100F3000CDB7DEB70CEB10E094EAF801908389831B
:100F40000E94810789818093BB0084E8F801808337
:100F50000F90DF91CF911F910F910C94810784E93D
:100F60008093BC0008958093BB0084E88093BC000C
:100F70000C948107CF93C82F882311F084EC01C013
:100F800084E88093BC000E9481078091BB00C1115E
:100F900003C094E99093BC00CF910895EF92FF9223
:100FA0001F93CF93DF931F92CDB7DEB7F82E142F88
:100FB000880F69830E9493076981862F0E94B30777
:100FC0008F2D880F81600E949307115081EAE82ECF
:100FD00081E0F82E0AC081E0111101C080E00E947A
:100FE000BA07F70181937F0111501F3FA1F70F90BE
:100FF000DF91CF911F91FF90EF9008951F93CF93B2
:10100000DF93D82FC62F142F880F0E9493078C2FA1
:101010000E94B307812F0E94B30784E98093BC002C
:1010200041E06C2F8D2F0E94CE0781E0C83619F069
:10103000CB3609F080E09091A1011917C1F0811120
:1010400016C01F929F931F921F931F92CF931F92C0
:10105000DF938AE293E09F938F930E94EC258DB7F4
:101060009EB70A960FB6F8949EBF0FBE8DBFDF9154
:10107000CF911F9108951F920F920FB60F921124D6
:101080008F939F93EF93FF93E091A0018091B9001C
:10109000F0E0E955FE4F80838091A001823021F17C
:1010A00030F4882359F0813009F04EC010C08430EC
:1010B00021F1E0F0853009F047C02AC08091B301EA
:1010C000880F8093BB008091BC00806805C0809130
:1010D000B2018093BB0085E88093BC008091A001A1
:1010E0008F5F8093A00133C085EAF6CF8091B30172
:1010F00090E0880F991F8160ECCF85EC8093BC0055
:101100008091A0018F5F8093A0011092B0011FC059
:10111000E091B0018091BB00F0E0EF55FE4F80837D
:101120008091B0018F5F8093B0019091B001809168
:10113000B101981307C08091A0018F5F8093A00137
:1011400085E803C085EC01C084E98093BC00FF9171
:10115000EF919F918F910F900FBE0F901F90189558
:101160004093B1011092B0018093B3016093B2013A
:101170001092A00185EA8093BC0008958091A0019F
:10118000863049F08AE18A95F1F700C08091A0018C
:10119000863009F01D9A0895CF93DF93EC0187E61E
:1011A0009EE3A8E0B4E38CA39DA3AEA3BFA360918C
:1011B000740170E080E090E00E945F2024E339EA4F
:1011C00049EF5AE30E945C1F9B01AC0164E379EA9A
:1011D00089EF9AE30E94C41F68A779A78AA79BA7F3
:1011E000BE016A5F7F4F8AA19BA10E94EC0E6E81B7
:1011F0007F81882777FD8095982F0E945F206A8BDA
:101200007B8B8C8B9D8B68857985882777FD809576
:10121000982F0E945F206E8B7F8B888F998F6A85B5
:101220007B85882777FD8095982F0E945F206A8FA5
:101230007B8F8C8F9D8FDF91CF910895BC01FC0136
:1012400082A193A10C94AE0EBC016A5F7F4FFC019A
:1012500082A193A10C94050F4F925F926F927F929F
:101260008F929F92AF92BF92CF92DF92EF92FF92B6
:101270000F931F93CF93DF93CDB7DEB76C970FB665
:10128000F894DEBF0FBECDBF8C01DC019496CD90EB
:10129000DD90ED90FC9097976D917C91882777FD7C
:1012A0008095982F0E945F20A70196010E9413212C
:1012B0002B013C01F80162817381882777FD8095BD
:1012C000982F0E945F20A70196010E941321698B2D
:1012D0007A8B8B8B9C8BD80114966D917C91159792
:1012E000882777FD8095982F0E945F20A70196019F
:1012F0000E9413216D8B7E8B8F8B988FD801529615
:101300008D919D910D90BC91A02D8D879E87AF876B
:10131000B88BF801C688D788E08CF18C828C938CCE
:10132000A48CB58C9C01AD01C301B2010E941321B4
:10133000698F7A8F8B8F9C8FA701960169897A8933
:101340008B899C890E9413219B01AC01698D7A8D48
:101350008B8D9C8D0E945C1F9B01AC01C501B4016B
:101360000E945B1FD8015A966D937D938D939C9339
:101370005D97A5019401C301B2010E9413212B01C5
:101380003C01A70196016D897E898F89988D0E9405
:1013900013219B01AC01C301B2010E945B1F9B01A1
:1013A000AC016D857E858F8598890E945C1FF80150
:1013B000628B738B848B958BA501940169897A89E3
:1013C0008B899C890E9413214B015C012D853E85F0
:1013D0004F8558896D897E898F89988D0E94132148
:1013E0009B01AC01C501B4010E945C1F9B01AC01D3
:1013F000C701B6010E945C1FD80156966D937D937C
:101400008D939C9359976C960FB6F894DEBF0FBEE0
:10141000CDBFDF91CF911F910F91FF90EF90DF90A3
:10142000CF90BF90AF909F908F907F906F905F9084
:101430004F9008952F923F924F925F926F927F92BA
:101440008F929F92AF92BF92CF92DF92EF92FF92D4
:101450000F931F93CF93DF933C01EC012C0186E0A7
:10146000480E511C8301F8942E803F80F801828839
:101470009388A488B5887894F301C0A4D1A4E2A489
:10148000F3A4A701960160E070E080E89FE30E946A
:101490005B1F9B01AC01C501B4010E9413214B01EC
:1014A0005C01F894B101882777FD8095982F0E9400
:1014B0005F20A70196010E9413219B01AC01682DBA
:1014C000792D8A2D9B2D0E945C1FF801628B738BF6
:1014D000848B958B789422960C5F1F4FC415D5058D
:1014E00009F0C1CFDF91CF911F910F91FF90EF9045
:1014F000DF90CF90BF90AF909F908F907F906F9034
:101500005F904F903F902F9008954F925F926F920F
:101510007F928F929F92AF92BF92CF92DF92EF9283
:10152000FF920F931F93CF93DF93CDB7DEB728972A
:101530000FB6F894DEBF0FBECDBF8C01F894DC016E
:1015400052968D919D910D90BC91A02D89839A8387
:10155000AB83BC83F801C688D788E08CF18C428CC1
:10156000538C648C758C7894A7019601C701B601E1
:101570000E9413214B015C01A3019201C301B2013E
:101580000E9413219B01AC01C501B4010E945C1FA4
:101590000E9480214B015C019B01AC0169817A8131
:1015A0008B819C810E94531D69837A838B839C83EA
:1015B000A3019201C701B6010E94531D6D837E8372
:1015C0008F839887F89423E839EF42E256E46981E3
:1015D0007A818B819C810E9413210E942C20D8014A
:1015E0005F967C936E935E9723E839EF42E256E470
:1015F0006D817E818F8198850E9413210E942C200D
:10160000F80171A360A3789420E030E040E852E450
:10161000C701B6010E941321A50194010E94C41FB5
:101620000E942C20D8011C966C9320E030E040E80A
:1016300052E4C301B2010E941321A50194010E944A
:10164000C41F0E942C20F801658728960FB6F894D5
:10165000DEBF0FBECDBFDF91CF911F910F91FF90E5
:10166000EF90DF90CF90BF90AF909F908F907F9042
:101670006F905F904F90089580916E048061809389
:101680006E048AE18A95F1F700C09091A00181E093
:10169000963031F080E09091AF019F5F9093AF0161
:1016A0000895CF93DF93EC0140E86BE688810E94B8
:1016B000FE072FEF81EE94E0215080409040E1F74B
:1016C00000C0000047E068E688810E94FE072FEF17
:1016D00081EE94E0215080409040E1F700C000008E
:1016E000DF91CF91089541E065E7FC0180810E9480
:1016F000CE0746E066E08091A1010E94291E91E09C
:10170000843309F090E0892F08950F931F93CF93AE
:10171000DF931F92CDB7DEB78C01262F41E06BE639
:10172000FC01808129830E94CE07298143E062E089
:1017300081EA91E00E94441E4091A1016BE6F8010C
:1017400080810F90DF91CF911F910F910C94FE0734
:101750000F931F93CF93DF931F92CDB7DEB78C010A
:10176000262F41E06BE1FC01808129830E94CE0796
:10177000298142E064E081EA91E00E94441E4091A8
:10178000A1016BE1F80180810F90DF91CF911F9152
:101790000F910C94FE070F931F93CF93DF931F922B
:1017A000CDB7DEB78C01262F41E06CE1FC018081D2
:1017B00029830E94CE07298142E064E081EA91E01A
:1017C0000E94441E4091A1016CE1F80180810F90BC
:1017D000DF91CF911F910F910C94FE07462F69E185
:1017E000FC0180810C94FE070F931F93CF93DF932E
:1017F0001F92CDB7DEB78C01262F41E06BE6FC01CE
:10180000808129830E94CE07298141E066E081EA38
:1018100091E00E94441E4091A1016BE6F801808195
:101820000F90DF91CF911F910F910C94FE07CF93F2
:10183000DF93EC0163E00E94850B60E0CE010E9423
:10184000A80B60E0CE010E94CB0B67E0CE010E94A6
:10185000EE0B60E0CE01DF91CF910C94F40BFC0114
:10186000928983892589228B26893789348B238B1A
:10187000208D258B218D328D378B268B908F99274C
:1018800087FD9095928F818F938D848D21A1238FD9
:1018900022A133A1319521953109358F248F268DD1
:1018A00021A3278D30A133A322A3968F9927819559
:1018B0000CF4909590A3878F0895FC0191E0928B92
:1018C000158A82E0808F138E968F81A381E090E04D
:1018D000948B838B978B868B928F818F2FEF3FEF2B
:1018E000358F248F90A3878F93A382A30895FC0143
:1018F000128A92E0958B81E0808F938F168E81A360
:101900008FEF9FEF948B838B978B868B928F818F3A
:1019100021E030E0358F248F30A3278F93A382A35B
:101920000895FC0181E0828B92E0958B108E938F5D
:10193000868F11A281E090E0948B838B2FEF3FEF95
:10194000378B268B928F818F958F848F90A3878F73
:1019500093A382A30895FF920F931F93CF93DF93D6
:10196000EC01162FF42E022F0E945D0C112341F082
:10197000CE010E942F0C123019F4CE010E942F0CC0
:10198000FF20E1F08AA19BA19195819591099BA3EC
:101990008AA38C8D9D8D9195819591099D8F8C8FBA
:1019A0008E899F899195819591099F8B8E8B898DC9
:1019B0009A8D9195819591099A8F898F0023F1F0E5
:1019C0008A899D899A8B8D8B8B899C892E893F89E9
:1019D0003C8B2B8B9195819591099F8B8E8B8B8D59
:1019E0009E8D9B8F8E8F2C8D3D8D8F8D98A138A3D2
:1019F0002F8F9195819591099D8F8C8FDF91CF913C
:101A00001F910F91FF9008956CE070E004960C9484
:101A1000DF1CCF93DF93EC01A8950E94040D998BF6
:101A2000888B4EE050E06EE270E0CE010496DF91CC
:101A3000CF910C9422280F931F93CF93DF93EC0147
:101A4000A8954EE050E06EE270E004960E941228E5
:101A500008891989CE010E94040D21E00817190791
:101A600009F020E0822FDF91CF911F910F9108950F
:101A70000F931F93CF93DF93DC01FB018C01075F72
:101A80001F4F52966C91529770E0EB01CC0FDD1F07
:101A9000CF55DE4F4981388120E0E901C42BAE01EA
:101AA00051834083EB012296CC0FDD1FC80FD91F55
:101AB00068817981461B570B5183408353966D9102
:101AC0007C9154976F3F7F4F29F45195419551096F
:101AD0005183408313963296A017B10791F6DF9198
:101AE000CF911F910F910895CF93DF93EB01411197
:101AF00002C063E401C06BE346E0FC0180810E9408
:101B0000CE079091A10180E02091A201822B9983C0
:101B100088839091A30180E02091A401822B9B8374
:101B20008A839091A50180E02091A601822B9D835C
:101B30008C83DF91CF9108952F923F924F925F92C5
:101B40006F927F928F929F92AF92BF92CF92DF92CD
:101B5000EF92FF920F931F93CF93DF93CDB7DEB732
:101B60006C970FB6F894DEBF0FBECDBF2C017A8FF5
:101B7000698F842E411104C0F0E46F2E712C04C0D3
:101B8000E8E16E2E7724739486E9A895EFE3FCE9EB
:101B90003197F1F700C000008150B9F77EC0A895D9
:101BA000F0EDAF16F7E0BF0661F586E4A8952FEFDC
:101BB0003AE693E0215030409040E1F700C0000049
:101BC0008150A1F7482DBE01635F7F4FC2010E9483
:101BD000740D19821A821B821C828D859E859C8BB6
:101BE0008B8B1D821E821F8218868F8598899E8B03
:101BF0008D8B19861A861B861C8689899A89988FEF
:101C00008F8B482DBE01635F7F4FC2010E94740D10
:101C1000A895DE015396AE01435F5F4F22242394C3
:101C2000312C2C0E3D1E3C8E2B8E60E0FA018191F2
:101C30009191AF012D913C911197281B390B37FFE2
:101C400003C031952195310962167306E0F06C01ED
:101C5000EE24D7FCE094FE2CEB8DFC8D00811181ED
:101C6000228133810C0D1D1D2E1D3F1D01931193EB
:101C700021933193FC8FEB8F8D939D936F5F633036
:101C8000A9F680E001C081E0F1E0AF1AB108882335
:101C900049F0A895E98DFA8D099560EDA62E67E0CB
:101CA000B62E7DCFA114B10409F079CFA895820199
:101CB000F3E08F9E50011124AA0CBB1C912C50ED17
:101CC000C52E57E0D52EE12CF12C21E0821208C060
:101CD000F20181A1981204C0F8011582148213C088
:101CE00038016A0C7B1CF1016081718182819381D2
:101CF00068517C4F8F4F9F4FA70196010E949322FE
:101D0000F3013583248393940E5F1F4FF4E02F0E6D
:101D1000311C23E09212D9CFC2010E94090D6C96AA
:101D20000FB6F894DEBF0FBECDBFDF91CF911F91EC
:101D30000F91FF90EF90DF90CF90BF90AF909F906A
:101D40008F907F906F905F904F903F902F9008956D
:101D500046E063E4FC0180810C94B0080C94380DDB
:101D60000F931F93CF93DF93DC01FB018C01075F7F
:101D70001F4F5B966C915B9770E0EB01CC0FDD1F02
:101D8000CF55DE4F4981388120E0E901C42BAE01F7
:101D900051834083EB012596CC0FDD1FC80FD91F5F
:101DA00068817981461B570B518340835C966D9106
:101DB0007C915D976F3F7F4F29F451954195510973
:101DC0005183408313963296A017B10791F6DF91A5
:101DD000CF911F910F9108950F931F93CF93DF938E
:101DE000EC018B0146E06BE388810E94CE07B801CD
:101DF000CE01DF91CF911F910F910C94B00E46E070
:101E00006BE3FC0180810C94B0080F931F93CF9378
:101E1000DF93EC018B018091A0018630C1F00E941C
:101E20003C0B811114C085E38A95F1F70000809185
:101E3000A001863061F00E943C0B811108C00E9415
:101E40007B07DF91CF911F910F910C946D07B80123
:101E5000CE01DF91CF911F910F910C94B00E8BE9C1
:101E600094E00C942B1CCF93C82F682F8BE994E03F
:101E70000E94191C8C2F90E0CF91089584B18E6040
:101E800084B98AB188668AB991EA94BD81E085BD3A
:101E900090938000809381009093B0008093B10074
:101EA0001092B3001092B400109289001092880032
:101EB00010928B0010928A0017BC18BC08958F9264
:101EC0009F92AF92BF92CF92DF92EF92FF920F93C9
:101ED0001F93CF93DF93EB0100E010E0C82ED12CCD
:101EE000E12CF12CB801882777FD8095982F0E946E
:101EF0005F209B01AC010E945C1F20E030E040E8C5
:101F00005BE30E9413212BED3FE049E450E40E9483
:101F100013210E9476214B015C01C701B6010E948A
:101F20005F209B01AC01C501B4010E94132120E098
:101F300030E040E05FE30E94132120E030E040E029
:101F400053E40E945C1F0E94312069930F5F1F4F72
:101F5000011581E0180731F6DF91CF911F910F91A4
:101F6000FF90EF90DF90CF90BF90AF909F908F90B9
:101F70000895F8946AEC72E080918A010E945F0FE4
:101F80006AEC71E0809189010E945F0F7894089556
:101F900023E030E040E052EC61E070E08BE994E057
:101FA0000E94551C6FE27FE083E39FE00C94612563
:101FB000259A8AB180698AB90E94C80F0E946D076C
:101FC00088E680934A048AE494E00E94510B8AE4F4
:101FD00094E00E94170C0E943E0F0C9406140E947D
:101FE000A21A82E791E00E94BC060E94B90F0E94EB
:101FF000ED052091780140917701609176018AE4A6
:1020000094E00E94AB0C8AE194E00E94CC088AE440
:1020100094E00E941B0D81110EC00E943612109296
:1020200059041092580410925704109256041092BA
:1020300055041092540483E793E09F938F930E947A
:10204000EC250F900F90089585E993E09F938F936F
:102050000E94EC250F900F900895CF92DF92EF929F
:10206000FF92CF93DF936AE174E080913C049091FA
:102070003D040E94AE0E80913C0490913D040E946C
:10208000FF0E8AE194E00E942C09F89480911C04D0
:1020900090911D0420911A0430911B0440911E045C
:1020A00050911F0478949093290480932804A09160
:1020B0002704E0912604BB27A7FDB0950E94422289
:1020C0006B017C019A01AE2FBB27A7FDB0950E9442
:1020D0004222C61AD70AE80AF90AF6E0F594E7940C
:1020E000D794C794FA95D1F7D0922B04C0922A04C2
:1020F0008AE194E00E94240980913C0490913D047F
:102100000E94A80EA89520912A0430912B0440919A
:10211000870450918804609138047091390482EDED
:1021200093E00E94A21E90938204809381042091E8
:1021300028043091290440918504509186046091CF
:102140003A0470913B0480EE93E00E94A21E9093AB
:10215000840480938304209181043091820440910F
:102160007D0450917E04241B350B30937C04209316
:102170007B0440917F0450918004841B950B9093C5
:102180007A048093790480919B0190E082179307F1
:1021900064F484E00E949C1E20919B0180917D0448
:1021A00090917E04820F911D11C0919581959109A6
:1021B000281739077CF484E00E949C1E20919B0123
:1021C00080917D0490917E04821B910990938204FA
:1021D000809381048091790490917A0420919A01EE
:1021E00030E02817390764F484E00E949C1E209197
:1021F0009A0180917F0490918004820F911D11C0FB
:10220000319521953109821793077CF484E00E946F
:102210009C1E20919A0180917F0490918004821BE2
:1022200091099093840480938304A0918104B091D8
:102230008204B0937E04A0937D04C0918304D09166
:102240008404D0938004C0937F04809189048130FA
:1022500009F468C0EC2FDD27C653DD4F98818091CB
:10226000CA03989FC001112434E0959587953A954B
:10227000E1F78093CE03CE2FCB5AD0E0C653DD4F8B
:1022800098818091CA03989FC001112444E09595DC
:1022900087954A95E1F78093CF03E655F0E0E65342
:1022A000FD4F90818091CA03989FC001112454E092
:1022B000959587955A95E1F78093D003EA2FBB2730
:1022C000A653BE4F9C918091CA03989FC0011124D0
:1022D00064E0959587956A95E1F78093CB03AE2FDF
:1022E000AB5AB0E0A653BE4F9C918091CA03989F11
:1022F000C001112474E0959587957A95E1F7809354
:10230000CC03E655F0E0E653FE4F90818091CA037E
:10231000989FC0011124E4E095958795EA95E1F72F
:102320008093CD03DF91CF91FF90EF90DF90CF901E
:10233000089542E1489F9001499F300D1124C90141
:10234000089580916F04811105C08091BC01909126
:10235000BD0109C0813029F48091770490917804FF
:1023600002C080E090E020917104AC01420F511D49
:1023700027FD5A95CA01089580916F04811105C007
:102380008091C2019091C30109C0813029F48091EC
:1023900075049091760402C080E090E02091700472
:1023A000AC01420F511D27FD5A95CA010895809333
:1023B0007404882381F00E94A11190937804809383
:1023C00077040E94BC11909376048093750481E099
:1023D00080936F04089510926F040895809372049F
:1023E00060937304109271041092700408958AE14E
:1023F00094E00E941A0A8AE194E00E94850A0E94F1
:10240000BC1190938804809387040E94A11190933B
:10241000860480938504089582E08093890408955A
:1024200080918904813071F018F08230F1F405C098
:102430008091CA038823C9F013C08091CA038031F8
:10244000A0F406C09091CA0380919C01981720F4D3
:102450008091CA038F5F07C09091CA03891728F43F
:102460008091CA0381508093CA030895CF93DF936C
:102470001F92CDB7DEB72AEC33E03F932F938983C9
:102480000E94EC25109289041092960410929704F1
:102490001092CA0317BC18BC1092B4001092B3007B
:1024A00010928B0010928A0010928900109288007E
:1024B000498164E270E18AE494E00E949C0D81E02D
:1024C00080939604809397048CEE93E09F938F9370
:1024D0000E94EC2582E0809389040F900F900F906A
:1024E0000F900F90DF91CF91089502E0CDE0D2E000
:1024F00012E1FF24F394EE24EA94A4E3DA2EB8E682
:10250000CB2E89E6B82E96E0A92E8FB7F89490903E
:102510009504109295048FBF992031F00E94B41455
:102520000E94FF14009389048EEE93E00E945B1BCF
:10253000992009F4ACC080918A048111ABC0A092AB
:102540008A040E941012A6C0B0928B040E944A19FD
:10255000A6C0D0928C040E94A11AA6C080E80E9456
:102560009C1EC0928D04A5C0D0928E0480919D01C6
:1025700090916E04282F292331F02D9A809589237C
:1025800080936E049BC02D9899C000938F04409156
:102590007504509176042091940130919501129F19
:1025A000C001139F900D1124481759071CF0E092A9
:1025B00000010EC02091920130919301129FC00141
:1025C000139F900D11248417950714F0F0920001C9
:1025D0002091000180917404682F2603900111243A
:1025E000240F351F309376042093750420917704CF
:1025F0003091780460918D0170918E01169FA00139
:10260000179F500D1124241735071CF0E09201018B
:102610000EC060918B0170918C01169FA001179FD5
:10262000500D11244217530714F0F092010140910C
:102630000101582F4503C0011124820F931F90936D
:102640007804809377043FC0D0939104C0939004A2
:1026500080917004811109C08091720480FF05C0CF
:10266000809173048093700402C010927004809172
:102670007104811109C08091720481FF05C08091AD
:1026800073048093710426C01092710423C01092C9
:10269000C4043BCF80918B04882309F455CF8091EB
:1026A0008C04882309F455CF80918D04882309F484
:1026B00055CF80918E04882309F456CF80918F04E2
:1026C000882309F462CF8091900490919104892B22
:1026D00009F4BACF80918B04815080938B04809150
:1026E0008C04815080938C0480918A048150809363
:1026F0008A0480918E04815080938E0480918D0491
:10270000815080938D0480918F04815080938F0439
:1027100080919004909191040197909391048093FB
:102720009004B5CF1F920F920FB60F9211242F93E2
:102730003F934F935F936F937F938F939F93AF9349
:10274000BF93EF93FF930E94DC1D46B1509192041A
:1027500054274093920450FF17C040FF07C0909346
:10276000BF018093BE011092C0010EC02091BE0136
:102770003091BF01BC01621B730B7093BF0160936A
:10278000BE0121E02093C00151FF17C041FF07C0E7
:102790009093B9018093B8011092BA010EC02091B4
:1027A000B8013091B901BC01621B730B7093B90180
:1027B0006093B80121E02093BA0152FF16C042FF96
:1027C00007C09093C5018093C4011092C6010DC04B
:1027D0002091C4013091C501821B930B9093C501D8
:1027E0008093C40181E08093C601FF91EF91BF9176
:1027F000AF919F918F917F916F915F914F913F9199
:102800002F910F900FBE0F901F90189587B1887F62
:1028100087B988B1876088B9ECE6F0E0808187608D
:102820008083E8E6F0E0808182608083F8941092F3
:10283000BB017894F8941092C1017894F8941092A6
:10284000C701789408950F931F93CF93DF93EC0102
:102850008B01F894888199817894DC01A05EB04660
:102860001A161B062CF0DC01A05ABA45B7FF23C08C
:10287000F801268130E00E94562220E030E440E05A
:1028800050E00E9493228C819D81820F931F9D8333
:102890008C83F801228133812817390714F43D8392
:1028A0002C83F801808191812C813D812817390783
:1028B00014F49D838C83DF91CF911F910F91089524
:1028C000CF92DF92EF92FF920F931F93CF93DF93FC
:1028D000EC018B01F894C880D9807894A09193047E
:1028E000B091940480ECC81A8DE5D80AEE24D7FC88
:1028F000E094FE2C2FEF33E00E945622C60ED71E26
:10290000E81EF91EC701B60120E034E040E050E0C7
:102910000E949322A9013093940420939304D80138
:102920001296ED91FC9113976D917C919F01261B5E
:10293000370B37FF02C02F5F3F4F35952795240F88
:10294000351FE217F3070CF49F01261737070CF425
:102950009B013D832C83DF91CF911F910F91FF90BD
:10296000EF90DF90CF9008958091C001882391F07F
:102970001092C1018091990162E971E0882329F0E8
:102980008EEB91E00E94601415C08EEB91E00E94E6
:10299000231410C08091C101883C48F080919601B9
:1029A000909197019093C3018093C20103C08F5F00
:1029B0008093C1018091BA01882381F01092BB01FC
:1029C000809199016BE871E0882321F088EB91E018
:1029D0000C94601488EB91E00C9423148091BB015B
:1029E000883C48F080918F01909190019093BD01B7
:1029F0008093BC0108958F5F8093BB0108958091FF
:102A0000C701882321F120C020E431E5811101C0F4
:102A100005C080E297E604C020E634E580E49AE64B
:102A20002417350710F08FEF08C04817590708F032
:102A300003C01092B701089581E08093B701089513
:102A400081508093C7010895883CD0F3F5CFF89466
:102A50004091B8015091B90178948091B70187FFF6
:102A6000D3CFDACF1F920F920FB60F9211242F936C
:102A70003F934F935F936F937F938F939F93AF9306
:102A8000BF93EF93FF9378948091020181508093DC
:102A900002018091B1048F5F8093B104811109C05C
:102AA0008091AF049091B00401969093B00480930C
:102AB000AF04809198048230F1F48091CB0387BDFC
:102AC0008091CC0388BD8091CD038093B400809128
:102AD000CE038093B3008091CF0390E090938B005E
:102AE00080938A008091D00390E090938900809336
:102AF00088001092980480910201811146C0809153
:102B0000980481113AC0F89481E0809398045C9A0B
:102B10008DE18093020178948091970481110E9445
:102B20002D1092E0909398045C988091030181505D
:102B300080930301811129C080919904811114C0EF
:102B4000F8945F9A81E080939904909303017894BC
:102B50008091960481110E94F71181E08093950481
:102B6000109299045F9811C080916E0482608093E6
:102B70006E0481E08093030108C080916E0482603E
:102B800080936E0481E080930201FF91EF91BF91E9
:102B9000AF919F918F917F916F915F914F913F91F5
:102BA0002F910F900FBE0F901F90189581E080938A
:102BB000C50428E088E190E00FB6F894A8958093CA
:102BC00060000FBE20936000F894FFCF2EE088E1F4
:102BD00090E00FB6F894A895809360000FBE209304
:102BE000600082E791E00E94BC068BE29BE09F932D
:102BF0008F930E94EC252EE088E190E00FB6F894C8
:102C0000A895809360000FBE209360000F900F90F6
:102C10000895E2E5F4E081818F9380818F93E0E570
:102C2000F4E081818F9380818F93EEE4F4E08181E1
:102C30008F9380818F9383EF9AE09F938F930E946D
:102C4000EC25E8E5F4E081818F9380818F93E6E5C0
:102C5000F4E081818F9380818F93E4E5F4E08181BA
:102C60008F9380818F9384E19BE09F938F930E9449
:102C7000EC258DB79EB740960FB6F8949EBF0FBE59
:102C80008DBF08958BE899E09F938F930E94EC2568
:102C90000F900F90089588EB94E09F938F930E947C
:102CA000EC258CEE94E09F938F930E94EC2588E2B4
:102CB00095E09F938F930E94EC258BE295E09F9384
:102CC0008F930E94EC2586E695E09F938F930E9458
:102CD000EC2589E695E09F938F930E94EC258EE783
:102CE00095E09F938F930E94EC2585EA95E09F9352
:102CF0008F930E94EC258AED95E09F938F930E941D
:102D0000EC2588EF95E09F938F930E94EC258FE24E
:102D100096E09F938F930E94EC258EE596E09F931B
:102D20008F930E94EC2585E796E09F938F930E94F6
:102D3000EC258BEA96E09F938F930E94EC258DEE15
:102D400096E09F938F930E94EC2586E297E09F93F5
:102D50008F930E94EC258DB79EB780960FB6F8949E
:102D60009EBF0FBE8DBF8CE597E09F938F930E940F
:102D7000EC2585E997E09F938F930E94EC2587EDE2
:102D800097E09F938F930E94EC2580EF97E09F93AD
:102D90008F930E94EC2581E398E09F938F930E948C
:102DA000EC2584E698E09F938F930E94EC258FE9B1
:102DB00098E09F938F930E94EC2582EA98E09F937E
:102DC0008F930E94EC2588ED98E09F938F930E944B
:102DD000EC258EE199E09F938F930E94EC2581E290
:102DE00099E09F938F930E94EC2588E399E09F934D
:102DF0008F930E94EC2583E599E09F938F930E9427
:102E0000EC2586E599E09F938F930E94EC258DB782
:102E10009EB74C960FB6F8949EBF0FBE8DBF089517
:102E20002EE088E190E00FB6F894A89580936000BA
:102E30000FBE2093600082E791E00E94AC0683E31E
:102E40009BE09F938F930E94EC252EE088E190E019
:102E50000FB6F894A895809360000FBE2093600091
:102E60000F900F90089581E00C94361280E00C943E
:102E7000361282E791E00E9465060E945F0780EAB1
:102E800094E09F938F930E94EC250F900F900895EC
:102E9000CF93DF938EEE93E00E94FF1BEC0100972F
:102EA00061F160E974E00E94EF24892B81F065E90B
:102EB00074E0CE010E94EF24892B59F06BE974E095
:102EC000CE010E94EF24892B31F0C0E005C0C1E0A3
:102ED00003C0C2E001C0C3E08EEE93E00E94FF1B7E
:102EE000009779F00E94C8246C308EEF780764F068
:102EF000653F81E078075CF40CC06AE070E0C0E0F8
:102F000008C06AE070E005C06CE07EEF02C064EFCC
:102F100071E08C2FDF91CF910C94EE118EEE93E047
:102F20000E94FF1B009771F00E94C824CB016F3FE5
:102F3000710519F014F08FEF90E097FF05C080E065
:102F400090E002C08AE090E00C94D711CF92DF921B
:102F5000EF92FF920F931F93CF93DF938EEE93E048
:102F60000E94FF1B009749F48BEA99E09F938F938F
:102F70000E94EC2510929A0464C020E030E0B22F49
:102F8000F901EE0FFF1FE854F64F65917491AB0104
:102F9000A0E06A2F70E0FA01E60FF71FE491EC0160
:102FA000C60FD71F6881AF5F7E2F71547A3110F43E
:102FB0007F5901C07E2FF62FF154FA3108F4605E7C
:102FC000761342C0E111E5CF46C08AEC99E09F93A9
:102FD0008F930E94EC250F900F90C0E0D0E004ED9D
:102FE00019E09CEDE92E99E0F92E29EDC22E29E099
:102FF000D22EFE01EE0FFF1FE854F64F85919491FB
:103000009F938F931F930F930E94EC250F900F9027
:103010000F900F90C73018F4DF92CF9204C0C730E2
:1030200031F4FF92EF920E94EC250F900F902196C1
:10303000C930D105F1F681EE99E09F938F930E94FC
:10304000EC250F900F9009C02F5F3F4F29303105BD
:1030500009F095CFBACFB0939A04DF91CF911F9129
:103060000F91FF90EF90DF90CF900895CF93DF9373
:10307000EC01009709F486C0DF93CF9387E094E0DA
:103080009F938F930E94EC258EE094E09F938F9303
:103090000E94EC250F900F900F900F900F900F90C3
:1030A0008989833009F455C038F4EA89FB89813075
:1030B000B9F108F03FC007C08530E1F098F08630E4
:1030C00009F05DC020C08081882319F080E194E080
:1030D00002C085E194E09F938F930E94EC250F90AE
:1030E0000F904DC0EA89FB8980811F928F938BE1FD
:1030F00094E026C0EA89FB8981818F9380818F9338
:103100008EE194E01DC0EA89FB8983818F938281DF
:103110008F9381818F9380818F9381E294E025C08A
:103120002081822F992787FD90959F932F9385E289
:1031300094E006C081818F9380818F9388E294E030
:103140009F938F930E94EC250F900F900F900F90FC
:1031500016C0EA89FB8983818F9382818F93818155
:103160008F9380818F938BE294E09F938F930E9443
:10317000EC250F900F900F900F900F900F908FE213
:1031800094E002C082E394E09F938F930E94EC2529
:103190000F900F90DF91CF910895CF93DF93EC01C3
:1031A000FE01A6E4B1E084918D93319681E0AC35C7
:1031B000B807C9F78091580190915901892B31F0D6
:1031C00086E491E00E9436186696EACF8DE494E09A
:1031D0009F938F930E94EC250F900F90DF91CF91DA
:1031E00008950F931F93CF93DF938EEE93E00E9489
:1031F000FF1BEC01009741F486E890E0DF91CF914E
:103200001F910F910C94CD188EEE93E00E94FF1B3E
:103210008C01CE010115110541F40E94F1060097C1
:1032200009F025C085E594E02AC00E94F106EC0172
:10323000009719F18989811111C060E774E0C80114
:103240000E94EF2401E010E020E030E0892B19F02B
:1032500000E010E09801A801C90104C0C8010E9463
:10326000C824AB01BC01CE010E942D07CE01DF9125
:10327000CF911F910F910C94361885E794E09F939E
:103280008F930E94EC250F900F90DF91CF911F91AB
:103290000F910895CF92DF92EF92FF920F931F93B9
:1032A000CF93DF93CDB7DEB760970FB6F894DEBF4C
:1032B0000FBECDBFA89580919A048430B1F048F438
:1032C000823009F473C008F088C0813009F02AC147
:1032D00056C0863009F4CDC008F4B0C0873009F478
:1032E000EBC0883009F01EC1F6C0F8948091380414
:1032F00090913904C0903A04D0903B04789452E104
:10330000E52EF12CB7010E945D22AB01662757FD27
:103310006095762F7F936F935F934F9324EE39E000
:103320003F932F938E010F5F1F4F1F930F930E94A8
:1033300011261F930F9327EE39E03F932F930E949E
:10334000EC25C601B7010E945D22CB01AA2797FD9B
:10335000A095BA2FBF93AF939F938F9384EF99E07B
:103360009F938F931F930F930E9411261F930F9388
:1033700087EF99E09F938F930E94EC25CEC0F8943D
:103380008091200490912104209122043091230403
:10339000409124045091250478945F934F933F9378
:1033A0002F939F938F9383E09AE043C0F89480918A
:1033B0001A0490911B0420911C0430911D0440912B
:1033C0001E0450911F0478945F934F933F932F9363
:1033D0009F938F938BE19AE02CC0F89460912C041A
:1033E00070912D0480912E0490912F040E942C2026
:1033F000162F072F609130047091310480913204B0
:10340000909133040E942C20F62EE72E6091340414
:103410007091350480913604909137040E942C20DD
:1034200078947F936F93EF92FF920F931F9385E3AE
:103430009AE09F938F930E94EC256FC080917A044D
:103440008F93809179048F93809184048F938091DE
:1034500083048F9380917C048F9380917B048F935E
:10346000809182048F93809181048F9380E59AE00C
:103470001EC0809129048F93809128048F9380919E
:103480002B048F9380912A048F9320912604822FFE
:10349000992787FD90959F932F9320912704822F42
:1034A000992787FD90959F932F9386E89AE09F93A5
:1034B0008F930E94EC2531C08091AF011F928F93B2
:1034C00082EB9AE09F938F930E94EC250F900F90D0
:1034D0000F900F9027C08091BB011F928F93909106
:1034E000BD019F939091BC019F931F928F938091F8
:1034F000B8019091B901805C9D459F938F93209175
:10350000B701822F992787FD90959F932F938EEB7C
:103510009AE09F938F930E94EC250FB6F894DEBF3C
:103520000FBECDBF60960FB6F894DEBF0FBECDBF05
:10353000DF91CF911F910F91FF90EF90DF90CF908F
:103540000895089549E357E162E171E08EEE93E05A
:103550000E941D1B40E157E165E171E08EEE93E0B2
:103560000E941D1B46EE55E168E171E08EEE93E08E
:103570000E941D1B41EF58E16BE171E08EEE93E07C
:103580000E941D1B46E357E16FE171E08EEE93E070
:103590000E941D1B43E357E163E271E08EEE93E06E
:1035A0000E941D1B4EE857E169E271E08EEE93E048
:1035B0000E941D1B48E457E16DE271E08EEE93E03E
:1035C0000E941D1B4BE456E163E371E08EEE93E035
:1035D0000E941D1B46EA57E168E371E08EEE93E01E
:1035E0000E941D1B46ED55E16EE371E08EEE93E007
:1035F0000E941D1B49E056E16FE171E08EEE93E001
:103600000E941D1B62E476E18EEE93E00C94571B42
:10361000CF93DF93EC01198218821A821C821B82DD
:103620001F821BA61AA664E471E005960E9401257C
:10363000188619A6DF91CF910895EF92FF920F930C
:103640001F93CF93DF93EC017B018A018A8190E085
:10365000019629E0289FB001299F700D11248881CF
:1036600099810E9400249C01998388838A8146E085
:1036700050E0B701F901A9E08A9FE00DF11D112486
:10368000CF010E9416258A81E881F98199E0899FFE
:10369000E00DF11D1124108707838A818F5F8A83D3
:1036A000DF91CF911F910F91FF90EF900895FC0152
:1036B0007483638308953F924F925F926F927F92DB
:1036C0008F929F92AF92BF92CF92DF92EF92FF9232
:1036D0000F931F93CF93DF93EC01332433944C016A
:1036E0008AE2880E911C3E01A5E06A0E711C2E0133
:1036F000B8E04B0E511C8BE994E00E94411C892BD1
:1037000009F467C08091BE049091BF040E94AC256B
:103710008D3019F08A3009F041C08F818111EBCFD3
:103720003F82A401B301C2010E9425258C010097AC
:1037300029F531C0982F91549A3108F4805E819315
:1037400080818111F7CFE880F980EA0CFB1C46E00C
:1037500050E0B701C8010E9408259C0189E0A80E2D
:10376000B11C232B39F4D7011796ED91FC911897D2
:10377000099511C0BFEFCB1ADB0A04C0A12CB12CF4
:10378000C12CD12C8A8190E0C816D906CCF4F8015E
:10379000D7CFC8010995188619A6ADCF1F828032F0
:1037A00008F4A9CF8F3789F4A6CFFE01E90FF11DE8
:1037B00080879F5F99A7FE01E90FF11D10869BCFBF
:1037C000EB81FC81309729F7E6CF99A5903268F319
:1037D00092CFDF91CF911F910F91FF90EF90DF90EB
:1037E000CF90BF90AF909F908F907F906F905F90A1
:1037F0004F903F900895FC01108611A60895AC01EA
:10380000465D5F4FBC016B5F7F4F80E090E00C94A2
:103810002525FC0180818F5F928189239181891701
:10382000E9F39081A381B481A90FB11D6C938083CA
:103830000895CF93DF93EC010E94091CE889F98970
:10384000808180628083EE85FF85808180648083B3
:10385000DF91CF910895FC0195818681981769F0D9
:103860008681A085B185A80FB11D2C9186818F5FBF
:1038700097818923868330E002C02FEF3FEFC90193
:103880000895FC012581868130E0281B310987815C
:1038900090E028233923C901089501C0A895FC01AF
:1038A000308121813213FACF0895CF93DF93EC0159
:1038B0009A01AB0183E0220F331F441F551F8A95E5
:1038C000D1F760E074E284EF90E00E947122215011
:1038D0003109EA85FB853083EC85FD852083EE8503
:1038E000FF8582E08083E889F98988E98083DF9118
:1038F000CF9108951F920F920FB60F9211248F93BC
:103900009F93EF93FF938091C6008091A0048F5FF7
:103910009091A20489239091A104891769F0909154
:10392000A004E091A304F091A404E90FF11D90918B
:10393000C60090838093A004FF91EF919F918F9197
:103940000F900FBE0F901F9018951F920F920FB6F9
:103950000F9211248F939F93AF93BF93EF93FF9395
:1039600090919B0480919C04981308C0E091AB0453
:10397000F091AC0480818F7D808316C0A091AD044E
:10398000B091AE0480919C04E0919E04F0919F045C
:10399000E80FF11D80818C9380919C048F5F909142
:1039A0009D04892380939C04FF91EF91BF91AF9177
:1039B0009F918F910F900FBE0F901F901895FC0153
:1039C000680F791F20EA3BE518C081912827822FD4
:1039D00082958227082E869586958025082E8695C5
:1039E00080258770022E232F869507948795302D8A
:1039F00028270694879530252827E617F70729F703
:103A0000C90108954F925F926F927F928F929F9219
:103A1000AF92BF92CF92DF92EF92FF926B017C0147
:103A20004B015C01E894B7F82BED3FE049E45FE31C
:103A30000E9413212B013C0120E030E040E85FE3CD
:103A4000C501B4010E945B1F9B01AC01C701B60117
:103A50000E9413216B017C012BE438EC47E85DE305
:103A6000C501B4010E94132123EA32E94AE75EE36B
:103A70000E945C1F9B01AC01C701B6010E9413218B
:103A80009B01AC01C301B2010E945B1FFF90EF904C
:103A9000DF90CF90BF90AF909F908F907F906F906E
:103AA0005F904F9008958F929F92AF92BF92CF9266
:103AB000DF92EF92FF92CF93DF934B015C0169019C
:103AC0007A019F775F77C1E00E940F2118160CF0F2
:103AD000C0E020E030E0A901C501B4010E940F213F
:103AE00087FD0AC0D1E020E030E0A901C701B6019E
:103AF0000E94C01F18160CF4D0E020E030E0A901AD
:103B0000C501B4010E94C01F18169CF020E030E0EF
:103B1000A901C701B6010E94C01F18160CF03FC0D2
:103B200020E030E0A901C701B6010E940F2187FF04
:103B3000D3E0CC2329F0A5019401C701B60104C04C
:103B4000A7019601C501B4010E94C41F0E94021D75
:103B5000CC2391F0262F372F482F592FD23039F010
:103B6000D33029F06BED7FE089EC9FE315C06BED5E
:103B70007FE089EC9FEB10C0D13019F0D23089F48E
:103B800007C02BED3FE049E450E40E945C1F09C0F0
:103B90002BED3FE049E450E40E945B1F02C0D2E0FD
:103BA000BFCFDF91CF91FF90EF90DF90CF90BF908C
:103BB000AF909F908F9008956FB7F8948091840094
:103BC00090918500282F8091840090918500382F56
:103BD0008217C9F34091B10456B36FBF50FF08C0BC
:103BE000242F30E02F5F3F4F322F2227330F12C098
:103BF0009927321750F4242F30E02F5F3F4F322F98
:103C00002227330F281B390B05C0342F330F20E038
:103C1000280F391FC90108950F931F93F8940E942C
:103C2000DC1D0091AF041091B00420E030E0980159
:103C300011270027080F191F211D311DB801C901C7
:103C40001F910F9108959091B104890F9813FFCFA0
:103C5000089570E0641B71096F5F7F4F21E030E0D1
:103C600002C0220F331F4A95E2F721503109062E78
:103C700001C0220F0A94EAF7822390E002C09595D2
:103C800087956A95E2F7089570E0641B71096F5F8C
:103C90007F4FE1E0F0E002C0EE0FFF1F4A95E2F730
:103CA0003197062E01C0EE0F0A94EAF701C0220FE9
:103CB0006A95EAF73E2F3095DC014C9134232E2390
:103CC000322B3C9308950E94D80F78940E94EF0FF6
:103CD0001092C5041092C4042EE088E190E00FB663
:103CE000F894A895809360000FBE209360008FE841
:103CF00093E09F938F930E94EC2581E0809397043B
:103D000080939604EFE6F0E08081816080838AE40E
:103D100094E00E94A80E0E9475120F900F9080E010
:103D200090E008958AE494E090933D0480933C04ED
:103D30008EEE93E00C94081B90916E04982B909358
:103D40006E0408956F927F928F929F92AF92BF926E
:103D5000CF92DF92EF92FF920F931F93CF93DF9357
:103D6000EC013A018901661A770AAA81BB819301A5
:103D70000E944222CA84DB84EC84FD848824992436
:103D800054018C189D08AE08BF08681579058A058E
:103D90009B058CF481E00E949C1E8A859B85AC85E6
:103DA000BD859C01AD0166277727CB01621B730B94
:103DB000840B950B0CC0C616D706E806F9063CF432
:103DC00081E00E949C1E6A857B858C859D858E8006
:103DD0009F80A884B984860E971EA81EB91E8E8265
:103DE0009F82A886B986288139814C815D81D30163
:103DF0000E9442226B017C01C80CD91CEA1CFB1CEE
:103E00009A01D8010E94422224E0959587957795E2
:103E100067952A95D1F7C61AD70AE80AF90AC701A1
:103E2000B60120E030E140E050E00E949322C90159
:103E3000DF91CF911F910F91FF90EF90DF90CF9086
:103E4000BF90AF909F908F907F906F9008958FE775
:103E500080939D048093A20480E890E00E94C92290
:103E6000EEE9F4E08083918380E890E00E94C9222B
:103E7000E3EAF4E08083918385EC90E09093A604DC
:103E80008093A50484EC90E09093A8048093A70409
:103E900080EC90E09093AA048093A90481EC90E0D8
:103EA0009093AC048093AB0486EC90E09093AE04C6
:103EB0008093AD0408955058BB27AA270ED075C132
:103EC00066D130F06BD120F031F49F3F11F41EF435
:103ED0005BC10EF4E095E7FB51C1E92F77D180F388
:103EE000BA17620773078407950718F071F49EF5F7
:103EF0008FC10EF4E0950B2EBA2FA02D0B01B90146
:103F000090010C01CA01A0011124FF27591B99F04F
:103F1000593F50F4503E68F11A16F040A22F232F5B
:103F2000342F4427585FF3CF469537952795A795AB
:103F3000F0405395C9F77EF41F16BA0B620B730B52
:103F4000840BBAF09150A1F0FF0FBB1F661F771FC3
:103F5000881FC2F70EC0BA0F621F731F841F48F478
:103F6000879577956795B795F7959E3F08F0B3CFFE
:103F70009395880F08F09927EE0F979587950895E8
:103F8000D9D008F481E008950CD00FC107D140F0DA
:103F9000FED030F021F45F3F19F0F0C0511139C16B
:103FA000F3C014D198F39923C9F35523B1F3951BAA
:103FB000550BBB27AA2762177307840738F09F5F4A
:103FC0005F4F220F331F441FAA1FA9F333D00E2EB9
:103FD0003AF0E0E830D091505040E695001CCAF726
:103FE00029D0FE2F27D0660F771F881FBB1F2617EB
:103FF00037074807AB07B0E809F0BB0B802DBF01BE
:10400000FF2793585F4F2AF09E3F510568F0B6C0D6
:1040100000C15F3FECF3983EDCF38695779567959A
:10402000B795F7959F5FC9F7880F911D969587956E
:1040300097F90895E1E0660F771F881FBB1F62178D
:1040400073078407BA0720F0621B730B840BBA0B4B
:10405000EE1F88F7E095089504D06894B111D9C097
:104060000895BCD088F09F5790F0B92F9927B75189
:10407000A0F0D1F0660F771F881F991F1AF0BA952C
:10408000C9F712C0B13081F0C3D0B1E00895C0C00B
:10409000672F782F8827B85F39F0B93FCCF3869522
:1040A00077956795B395D9F73EF49095809570957F
:1040B00061957F4F8F4F9F4F0895E89409C097FBFC
:1040C0003EF490958095709561957F4F8F4F9F4FEF
:1040D0009923A9F0F92F96E9BB279395F695879533
:1040E00077956795B795F111F8CFFAF4BB0F11F4F6
:1040F00060FF1BC06F5F7F4F8F4F9F4F16C088239D
:1041000011F096E911C0772321F09EE8872F762FD2
:1041100005C0662371F096E8862F70E060E02AF013
:104120009A95660F771F881FDAF7880F96958795FF
:1041300097F90895990F0008550FAA0BE0E8FEEFD4
:1041400016161706E807F907C0F012161306E4075B
:10415000F50798F0621B730B840B950B39F40A2654
:1041600061F0232B242B252B21F408950A2609F432
:10417000A140A6958FEF811D811D089597F99F6736
:1041800080E870E060E008959FEF80EC08950024DF
:104190000A941616170618060906089500240A94AC
:1041A00012161306140605060895092E0394000C32
:1041B00011F4882352F0BB0F40F4BF2B11F460FFC1
:1041C00004C06F5F7F4F8F4F9F4F089557FD9058EA
:1041D000440F551F59F05F3F71F04795880F97FBCB
:1041E000991F61F09F3F79F0879508951216130685
:1041F0001406551FF2CF4695F1DF08C016161706B4
:104200001806991FF1CF86957105610508940895E8
:10421000E894BB2766277727CB0197F908958ADFB3
:1042200008F48FEF08950BD0C0CFB1DF28F0B6DFD0
:1042300018F0952309F0A2CFA7CF1124EACFC6DF4B
:10424000A0F3959FD1F3950F50E0551F629FF001A9
:10425000729FBB27F00DB11D639FAA27F00DB11D02
:10426000AA1F649F6627B00DA11D661F829F22278B
:10427000B00DA11D621F739FB00DA11D621F839F12
:10428000A00D611D221F749F3327A00D611D231FE8
:10429000849F600D211D822F762F6A2F11249F5736
:1042A00050408AF0E1F088234AF0EE0FFF1FBB1F59
:1042B000661F771F881F91505040A9F79E3F5105F8
:1042C00070F05CCFA6CF5F3FECF3983EDCF38695B1
:1042D00077956795B795F795E7959F5FC1F7FE2BA3
:1042E000880F911D9695879597F908959F935CD0B7
:1042F0000F9007FCEE5F7FC011F40EF445CF3EC077
:104300006DDFD0F39923D9F3CEF39F57550B87FF79
:1043100043D00024A0E640EA900180585695979536
:1043200028F4805C660F771F881F20F02617370758
:10433000480730F4621B730B840B202931294A2B68
:10434000A69517940794202531254A2758F7660F1C
:10435000771F881F20F026173707480730F4620BB5
:10436000730B840B200D311D411DA09581F7B90100
:10437000842F9158880F9695879508959F3F31F027
:10438000915020F4879577956795B795880F911D83
:104390009695879597F9089591505040660F771F2D
:1043A000881FD2F70895F0CE19DFE8F3E894E0E033
:1043B000BB279F57F0F02AED3FE049EC06C0EE0F17
:1043C000BB0F661F771F881F28F0B23A620773077A
:1043D000840728F0B25A620B730B840BE3959A950D
:1043E00072F7803830F49A95BB0F661F771F881FCD
:1043F000D2F79048C5CFEF93E0FF06C0A2EA2AEDBE
:104400003FE049EC5FEB69DDD0DE0F90039401FCE7
:104410009058E8E6F0E000C09F938F937F936F93EE
:10442000FF93EF939B01AC01FEDEEF91FF9105D06E
:104430002F913F914F915F91F6CEDF93CF931F93D2
:104440000F93FF92EF92DF927B018C01689405C07D
:10445000DA2EEF01F4DEFE01E894A5912591359165
:1044600045915591AEF3EF0138DDFE019701A801AA
:10447000DA9479F7DF90EF90FF900F911F91CF9131
:10448000DF9108950E944A22332312F48A1B9B0B6A
:104490000C945822A29FB001B39FC001A39F01D0EA
:1044A000B29F700D811D1124911D08950E944A2212
:1044B000B7FF0895821B930B089597FB072E16F400
:1044C000009407D077FD09D00E94AF2207FC05D0E9
:1044D0003EF4909581959F4F0895709561957F4F1B
:1044E0000895A1E21A2EAA1BBB1BFD010DC0AA1F35
:1044F000BB1FEE1FFF1FA217B307E407F50720F04D
:10450000A21BB30BE40BF50B661F771F881F991FC7
:104510001A9469F760957095809590959B01AC0110
:10452000BD01CF010895052E97FB16F4009407D026
:1045300057FD0DD00E94712207FC09D07EF49095A2
:104540008095709561957F4F8F4F9F4F089550953F
:104550004095309521953F4F4F4F5F4F0895AA1BCF
:10456000BB1B51E107C0AA1FBB1FA617B70710F05E
:10457000A61BB70B881F991F5A95A9F78095909590
:10458000BC01CD010895EE0FFF1F0590F491E02DC1
:1045900009940F931F93CF93DF938230910510F40A
:1045A00082E090E0E091BC04F091BD0420E030E0B6
:1045B000C0E0D0E023C04081518148175907A8F0DE
:1045C0004817590761F482819381209719F09B83E2
:1045D0008A832EC09093BD048093BC0429C021150A
:1045E000310529F04217530710F0A90102C0BE019E
:1045F000DF0102811381EF019A01F8013097D9F6AA
:104600002115310509F1281B390B2430310590F4AF
:1046100012968D919C9113976115710521F0FB0104
:104620009383828304C09093BD048093BC04FD01F6
:10463000329644C0FD01E20FF31F81939193225003
:1046400031092D933C933AC02091BA043091BB04B8
:10465000232B41F420910E0130910F013093BB04C4
:104660002093BA0420910C0130910D0121153105E0
:1046700041F42DB73EB74091100150911101241B18
:10468000350BE091BA04F091BB04E217F307A0F4F4
:104690002E1B3F0B2817390778F0AC014E5F5F4F98
:1046A0002417350748F04E0F5F1F5093BB0440930B
:1046B000BA048193919302C0E0E0F0E0CF01DF9172
:1046C000CF911F910F910895EF92FF920F931F9337
:1046D000CF93DF93009709F48EC0DC0112971396F5
:1046E0001C921E921297E090BC04F090BD04E1145D
:1046F000F10489F42D913C911197280F391F809175
:10470000BA049091BB048217930789F5B093BB0458
:10471000A093BA0470C0E70120E030E001C0EA01D4
:10472000CA17DB0738F44A815B819E0141155105A8
:10473000B1F722C0AC0142505109FA01D383C283C0
:1047400000811181BC01600F711F6C177D0761F43E
:1047500068817981600F711F6E5F7F4F7183608305
:104760006A817B81738362832115310529F4B093BB
:10477000BD04A093BC043FC0F901B383A283E90147
:1047800049915991C40FD51FAC17BD0771F4DC01D5
:104790009E918E91840F951F02969183808312962D
:1047A0008D919C91139793838283A0E0B0E002C027
:1047B000D7017C01F701828193810097C9F7C70176
:1047C000029620813181820F931F2091BA0430918B
:1047D000BB042817390779F4109729F41092BD0407
:1047E0001092BC0404C013961C921E921297F09271
:1047F000BB04E092BA04CDB7DEB7E6E00C942729FB
:10480000A0E0B0E0E6E0F4E20C940529EC010097AA
:1048100029F4CB010E94C922EC01B4C0DC01A60F2F
:10482000B71FFC013297AE17BF0718F4C0E0D0E005
:10483000A9C00081118106171707B0F005301105D6
:1048400008F4A0C0C80104978617970708F49AC017
:1048500002501109061B170B0D931D937183608382
:10486000CD010E9464238EC06B01C01AD10A7C0165
:10487000E00EF11EE091BC04F091BD0420E030E0B8
:1048800080E090E048C0EE15FF05D1F58080918072
:10489000540142E0A40EB11CAC14BD0488F17401B3
:1048A000EC18FD08670122E0C20ED11C9E012250C7
:1048B000310945E0C416D10478F042815381139642
:1048C0005C934E9312971196FC92EE92F9017183CC
:1048D00060833A2F2B2F09C00E5F1F4F080D191D43
:1048E000D9010D931C9332812381009721F0FC01A3
:1048F0003283238347C03093BC042093BD0442C05D
:10490000808191812817390708F49C0152814381E5
:10491000CF01E52FF42F309709F0B5CF8091BA047D
:104920009091BB048E159F05F1F426173707D8F434
:1049300080910C0190910D01009741F48DB79EB7C5
:104940002091100130911101821B930BA817B90718
:1049500008F06CCFB093BB04A093BA04FE01329769
:10496000718360830FC0CB010E94C9227C01009734
:1049700009F45CCFA801BE010E94F824CE010E9478
:104980006423E701CE01CDB7DEB7ECE00C9421291A
:104990001F93FC0199278827BC01E89411911032DC
:1049A000E9F3193010F01E30C8F31B3251F01D32FC
:1049B00049F4689406C00E944C25610F711D811D49
:1049C000911D119110531A30B0F33EF490958095DB
:1049D000709561957F4F8F4F9F4F1F910895FB01F9
:1049E000DC018D91059080190110D9F3990B089580
:1049F000FB01DC0102C001900D9241505040D8F7FC
:104A00000895FB01DC0101900D920020E1F708956B
:104A1000FB01DC014150504030F08D910190801934
:104A200019F40020B9F7881B990B0895FB01DC01EC
:104A30004150504048F001900D920020C9F701C04C
:104A40001D9241505040E0F70895FA01A191B081C4
:104A5000009719F41097E1F0CD01DC01CD010D9024
:104A6000002011F4C00113C0FB012191222319F091
:104A70002015D9F7F3CFFB012191201519F41E92CF
:104A8000119606C02223C1F70D900020A1F7D00196
:104A9000FA01A193B0830895592F482F372F262F5D
:104AA000660F771F881F991F660F771F881F991F32
:104AB000620F731F841F951F660F771F881F991F32
:104AC00008950F931F93CF93DF93EC018B01009711
:104AD00031F46115710519F4E0E0F0E037C06EE0E3
:104AE00070E081E090E00E943A28FC010097A1F379
:104AF00080E883830115110571F01387028781E82F
:104B000083838091BE049091BF04892B21F4F0939C
:104B1000BF04E093BE042097C9F0D187C08783818A
:104B2000826083838091C0049091C104892B71F4C9
:104B3000F093C104E093C0048091C2049091C30437
:104B4000892B21F4F093C304E093C204CF01DF91D9
:104B5000CF911F910F910895CF93DF93EC013B818B
:104B600030FF34C036FF0AC03F7B3B838E819F817C
:104B700001969F838E832A8130E02AC032FF0FC0C6
:104B8000E881F9818081992787FD9095009719F434
:104B900030623B831BC03196F983E8830EC0EA85FF
:104BA000FB85099597FF09C02B81019611F480E1DF
:104BB00001C080E2822B8B8309C02E813F812F5F51
:104BC0003F4F3F832E839C01332702C02FEF3FEFDF
:104BD000C901DF91CF910895A2E0B0E0E2EFF5E2E4
:104BE0000C940D29FE01399661917191FA83E98344
:104BF00000EC14E0D8018D919C91DC0113962C916E
:104C00001397286013962C93AF010E943526D80184
:104C1000ED91FC912381277F23832296E4E00C947D
:104C20002929A0E1B0E0E7E1F6E20C940D290F8913
:104C3000188D8EE08C831A8309838FEF9FE79E8304
:104C40008D83AE01455E5F4F588B4F87698D7A8D9E
:104C5000CE0101960E943526EF81F885E00FF11F05
:104C600010826096E4E00C942929ACE0B0E0EBE31C
:104C7000F6E20C94FF287C016B018A01FC0117828B
:104C80001682838181FFC7C188248394912C8C0E66
:104C90009D1EF7019381F60193FD859193FF81910C
:104CA0006F01882309F4B3C1853239F493FD8591EE
:104CB00093FF81916F01853229F4B70190E00E9442
:104CC0007528E7CF712C312C20E02032A8F48B32EC
:104CD00061F028F4803251F0833271F40BC08D32D0
:104CE00039F0803349F4216028C02260246025C057
:104CF000286023C0206121C027FD27C0382F3053F2
:104D00003A3078F426FF06C0FAE07F9E300D112479
:104D1000732E13C08AE0389E300D1124332E20628A
:104D20000CC08E3221F426FD72C1206406C08C3680
:104D300011F4206802C0883641F4F60193FD859194
:104D400093FF81916F018111C0CF982F95549330BB
:104D500018F09052933028F40C5F1F4FFFE3F98353
:104D60000DC0833631F0833771F0833509F05EC0B2
:104D700023C0F801808189830E5F1F4F66246394EE
:104D8000712C540115C02801F2E04F0E511CF8019E
:104D9000A080B18026FF03C0672D70E002C06FEFD6
:104DA0007FEFC5012C870E946A283C0182012C8577
:104DB0006FE7262E222218C02801F2E04F0E511C68
:104DC000F801A080B18026FF03C0672D70E002C00B
:104DD0006FEF7FEFC5012C870E9458283C012C857E
:104DE00050E8252E222A820123FC1CC006C0B701F0
:104DF00080E290E00E9475283A94832D90E0681636
:104E00007906A8F30FC0F50127FC859127FE819153
:104E10005F01B70190E00E94752831103A94F1E0EB
:104E20006F1A71086114710471F7EEC0843611F0C5
:104E3000893641F5F80127FF07C0608171818281C1
:104E400093810C5F1F4F08C060817181882777FDB7
:104E50008095982F0E5F1F4F4FE6642E622297FFBA
:104E600009C090958095709561957F4F8F4F9F4FAA
:104E7000F0E86F2A2AE030E0A4010E94A128A82EC1
:104E8000A81844C0853731F43FEEB32EB2222AE091
:104E900030E024C099EFB92EB2228F36B9F020F459
:104EA000883509F0B4C00DC0803721F0883709F08B
:104EB000AEC002C020E1B22AB4FE0BC084E0B82A22
:104EC00008C024FF09C0E6E0BE2A06C028E030E0A2
:104ED00005C020E130E002C020E132E0F801B7FE79
:104EE00007C060817181828193810C5F1F4F06C072
:104EF0006081718180E090E00E5F1F4FA4010E94ED
:104F0000A128A82EA8188FE7682E6B2066FE0BC07C
:104F1000362D3E7FA71450F464FE0AC062FC08C020
:104F2000362D3E7E05C0BA2C362D03C0BA2C01C0EA
:104F3000B72C34FF0DC0FE01EA0DF11D80818033D6
:104F400011F4397E09C032FF06C0B394B39404C093
:104F5000832F867809F0B39433FD14C030FF0FC05F
:104F60007A2CB31460F4730C7B18B32C08C0B7010F
:104F700080E290E03C870E947528B3943C85B3148E
:104F8000B0F304C0B31410F43B1801C0312C34FF4B
:104F900012C0B70180E390E03C870E9475283C85F1
:104FA00032FF1EC031FF03C088E590E002C088E7F1
:104FB00090E0B7010CC0832F867891F031FD02C0DC
:104FC00080E201C08BE237FD8DE2B70190E00E94E4
:104FD000752806C0B70180E390E00E9475287A9496
:104FE000A714C0F3AA94F401EA0DF11DB701808162
:104FF00090E00E947528A110F5CF06C0B70180E2AD
:1050000090E00E9475283A943110F8CF42CEF70113
:105010002681378102C02FEF3FEFC9012C96E2E1D4
:105020000C941B29DC01CB01FC01F999FECF06C0D1
:10503000F2BDE1BDF89A319600B40D924150504056
:10504000B8F70895DC01CB0103C02D910E942D28F3
:1050500041505040D0F70895262FF999FECF1FBA3E
:1050600092BD81BD20BD0FB6F894FA9AF99A0FBE91
:10507000019608950F931F93CF93DF93689F80014C
:10508000699F100D789F100D1124C8010E94C9223C
:10509000C82FD92F209731F0A80160E070E08C2F45
:1050A0000E946328CE01DF91CF911F910F91089547
:1050B000FC010590615070400110D8F780959095E3
:1050C0008E0F9F1F0895DC0101C06D934150504029
:1050D000E0F70895FC016150704001900110D8F78D
:1050E000809590958E0F9F1F08950F931F93CF93D8
:1050F000DF938C01EB018B8181FD03C00FEF1FEF6C
:105100001AC082FF0DC02E813F818C819D8128179E
:10511000390764F4E881F9810193F983E88306C0D3
:10512000E885F985802F0995892B41F78E819F812C
:1051300001969F838E83C801DF91CF911F910F91BC
:105140000895FA01AA27283051F1203181F1E8941D
:105150006F936E7F6E5F7F4F8F4F9F4FAF4FB1E06A
:105160003ED0B4E03CD0670F781F891F9A1FA11D65
:10517000680F791F8A1F911DA11D6A0F711D811D66
:10518000911DA11D20D009F468943F912AE0269F2B
:1051900011243019305D3193DEF6CF010895462F8A
:1051A0004770405D4193B3E00FD0C9F7F6CF462F6B
:1051B0004F70405D4A3318F0495D31FD40524193D4
:1051C00002D0A9F7EACFB4E0A69597958795779591
:1051D0006795BA95C9F700976105710508959B0118
:1051E000AC010A2E06945795479537952795BA95A1
:1051F000C9F7620F731F841F951FA01D08952F927A
:105200003F924F925F926F927F928F929F92AF9256
:10521000BF92CF92DF92EF92FF920F931F93CF93A3
:10522000DF93CDB7DEB7CA1BDB0B0FB6F894DEBF3A
:105230000FBECDBF09942A88398848885F846E8460
:105240007D848C849B84AA84B984C884DF80EE80AA
:10525000FD800C811B81AA81B981CE0FD11D0FB6B3
:10526000F894DEBF0FBECDBFED010895F894FFCFD7
:1052700001011D02FFFFFFFFFFFFFFFF0000C7044A
:1052800020007364007765007265007061720063CE
:10529000616C006C6576656C006F7363007472619D
:1052A0006E730068656C7000646562756700726596
:0652B0007365740020008C
:00000001FF
